{
  "_format": "hh-sol-artifact-1",
  "contractName": "Staking",
  "sourceName": "contracts/Staking.sol",
  "abi": [
    {
      "inputs": [
        {
          "internalType": "address",
          "name": "_stakingToken",
          "type": "address"
        }
      ],
      "stateMutability": "nonpayable",
      "type": "constructor"
    },
    {
      "inputs": [
        {
          "internalType": "address",
          "name": "owner",
          "type": "address"
        }
      ],
      "name": "OwnableInvalidOwner",
      "type": "error"
    },
    {
      "inputs": [
        {
          "internalType": "address",
          "name": "account",
          "type": "address"
        }
      ],
      "name": "OwnableUnauthorizedAccount",
      "type": "error"
    },
    {
      "inputs": [
        {
          "internalType": "address",
          "name": "token",
          "type": "address"
        }
      ],
      "name": "SafeERC20FailedOperation",
      "type": "error"
    },
    {
      "anonymous": false,
      "inputs": [
        {
          "indexed": true,
          "internalType": "address",
          "name": "previousOwner",
          "type": "address"
        },
        {
          "indexed": true,
          "internalType": "address",
          "name": "newOwner",
          "type": "address"
        }
      ],
      "name": "OwnershipTransferred",
      "type": "event"
    },
    {
      "anonymous": false,
      "inputs": [
        {
          "indexed": true,
          "internalType": "address",
          "name": "user",
          "type": "address"
        },
        {
          "indexed": false,
          "internalType": "uint256",
          "name": "amount",
          "type": "uint256"
        }
      ],
      "name": "Staked",
      "type": "event"
    },
    {
      "anonymous": false,
      "inputs": [
        {
          "indexed": true,
          "internalType": "address",
          "name": "user",
          "type": "address"
        },
        {
          "indexed": false,
          "internalType": "uint256",
          "name": "amount",
          "type": "uint256"
        },
        {
          "indexed": false,
          "internalType": "uint256",
          "name": "penalty",
          "type": "uint256"
        }
      ],
      "name": "Unstaked",
      "type": "event"
    },
    {
      "inputs": [],
      "name": "MIN_STAKE_PERIOD",
      "outputs": [
        {
          "internalType": "uint256",
          "name": "",
          "type": "uint256"
        }
      ],
      "stateMutability": "view",
      "type": "function"
    },
    {
      "inputs": [],
      "name": "PENALTY_RATE",
      "outputs": [
        {
          "internalType": "uint256",
          "name": "",
          "type": "uint256"
        }
      ],
      "stateMutability": "view",
      "type": "function"
    },
    {
      "inputs": [],
      "name": "claimReward",
      "outputs": [],
      "stateMutability": "nonpayable",
      "type": "function"
    },
    {
      "inputs": [],
      "name": "getTotalStaked",
      "outputs": [
        {
          "internalType": "uint256",
          "name": "",
          "type": "uint256"
        }
      ],
      "stateMutability": "view",
      "type": "function"
    },
    {
      "inputs": [],
      "name": "owner",
      "outputs": [
        {
          "internalType": "address",
          "name": "",
          "type": "address"
        }
      ],
      "stateMutability": "view",
      "type": "function"
    },
    {
      "inputs": [],
      "name": "renounceOwnership",
      "outputs": [],
      "stateMutability": "nonpayable",
      "type": "function"
    },
    {
      "inputs": [],
      "name": "rewardDistributor",
      "outputs": [
        {
          "internalType": "contract IRewardDistribution",
          "name": "",
          "type": "address"
        }
      ],
      "stateMutability": "view",
      "type": "function"
    },
    {
      "inputs": [
        {
          "internalType": "address",
          "name": "_rewardDistributor",
          "type": "address"
        }
      ],
      "name": "setRewardDistributor",
      "outputs": [],
      "stateMutability": "nonpayable",
      "type": "function"
    },
    {
      "inputs": [
        {
          "internalType": "address",
          "name": "_yieldPool",
          "type": "address"
        }
      ],
      "name": "setYieldPool",
      "outputs": [],
      "stateMutability": "nonpayable",
      "type": "function"
    },
    {
      "inputs": [
        {
          "internalType": "uint256",
          "name": "amount",
          "type": "uint256"
        }
      ],
      "name": "stake",
      "outputs": [],
      "stateMutability": "nonpayable",
      "type": "function"
    },
    {
      "inputs": [
        {
          "internalType": "address",
          "name": "",
          "type": "address"
        }
      ],
      "name": "stakes",
      "outputs": [
        {
          "internalType": "uint256",
          "name": "amount",
          "type": "uint256"
        },
        {
          "internalType": "uint256",
          "name": "lastStakedTime",
          "type": "uint256"
        }
      ],
      "stateMutability": "view",
      "type": "function"
    },
    {
      "inputs": [],
      "name": "stakingToken",
      "outputs": [
        {
          "internalType": "contract IERC20",
          "name": "",
          "type": "address"
        }
      ],
      "stateMutability": "view",
      "type": "function"
    },
    {
      "inputs": [],
      "name": "totalStaked",
      "outputs": [
        {
          "internalType": "uint256",
          "name": "",
          "type": "uint256"
        }
      ],
      "stateMutability": "view",
      "type": "function"
    },
    {
      "inputs": [
        {
          "internalType": "address",
          "name": "newOwner",
          "type": "address"
        }
      ],
      "name": "transferOwnership",
      "outputs": [],
      "stateMutability": "nonpayable",
      "type": "function"
    },
    {
      "inputs": [
        {
          "internalType": "uint256",
          "name": "amount",
          "type": "uint256"
        }
      ],
      "name": "unstake",
      "outputs": [],
      "stateMutability": "nonpayable",
      "type": "function"
    },
    {
      "inputs": [],
      "name": "yieldPool",
      "outputs": [
        {
          "internalType": "contract IYieldPool",
          "name": "",
          "type": "address"
        }
      ],
      "stateMutability": "view",
      "type": "function"
    }
  ],
  "bytecode": "0x60a060405234801561001057600080fd5b506040516109dd3803806109dd83398101604081905261002f91610117565b338061005657604051631e4fbdf760e01b8152600060048201526024015b60405180910390fd5b61005f816100c7565b506001600160a01b0381166100b65760405162461bcd60e51b815260206004820152601560248201527f496e76616c6964207374616b696e6720746f6b656e0000000000000000000000604482015260640161004d565b6001600160a01b0316608052610147565b600080546001600160a01b038381166001600160a01b0319831681178455604051919092169283917f8be0079c531659141344cd1fd0a4f28419497f9722a3daafe3b4186f6b6457e09190a35050565b60006020828403121561012957600080fd5b81516001600160a01b038116811461014057600080fd5b9392505050565b60805161086d61017060003960008181610196015281816103560152610482015261086d6000f3fe608060405234801561001057600080fd5b50600436106101005760003560e01c80638da5cb5b11610097578063acc2166a11610066578063acc2166a14610223578063b88a802f14610236578063d342f4841461023e578063f2fde38b1461024857600080fd5b80638da5cb5b146101d95780638f188dd4146101ea578063a1809b95146101fd578063a694fc3a1461021057600080fd5b80636c53236b116100d35780636c53236b14610176578063715018a61461018957806372f702f314610191578063817b1cd2146101d057600080fd5b80630917e776146101055780630ad08b861461011c57806316934fc4146101255780632e17de7814610161575b600080fd5b6004545b6040519081526020015b60405180910390f35b6101096101f481565b61014c610133366004610773565b6003602052600090815260409020805460019091015482565b60408051928352602083019190915201610113565b61017461016f3660046107a3565b61025b565b005b610174610184366004610773565b6103bd565b6101746103e7565b6101b87f000000000000000000000000000000000000000000000000000000000000000081565b6040516001600160a01b039091168152602001610113565b61010960045481565b6000546001600160a01b03166101b8565b6002546101b8906001600160a01b031681565b61017461020b366004610773565b6103fb565b61017461021e3660046107a3565b610425565b6001546101b8906001600160a01b031681565b610174610533565b61010962093a8081565b610174610256366004610773565b6105aa565b336000908152600360205260409020548111156102b65760405162461bcd60e51b8152602060048201526014602482015273496e73756666696369656e742062616c616e636560601b60448201526064015b60405180910390fd5b336000908152600360205260408120600101546102d79062093a80906107d2565b4210156102fa576127106102ed6101f4846107eb565b6102f79190610802565b90505b60006103068284610824565b3360009081526003602052604081208054929350859290919061032a908490610824565b9250508190555082600460008282546103439190610824565b9091555061037d90506001600160a01b037f00000000000000000000000000000000000000000000000000000000000000001633836105e8565b604080518481526020810184905233917f7fc4727e062e336010f2c282598ef5f14facb3de68cf8195c2f23e1454b2b74e910160405180910390a2505050565b6103c561064c565b600280546001600160a01b0319166001600160a01b0392909216919091179055565b6103ef61064c565b6103f96000610679565b565b61040361064c565b600180546001600160a01b0319166001600160a01b0392909216919091179055565b600081116104755760405162461bcd60e51b815260206004820152601860248201527f43616e6e6f74207374616b65207a65726f20746f6b656e73000000000000000060448201526064016102ad565b6104aa6001600160a01b037f0000000000000000000000000000000000000000000000000000000000000000163330846106c9565b33600090815260036020526040812080548392906104c99084906107d2565b909155505033600090815260036020526040812042600190910155600480548392906104f69084906107d2565b909155505060405181815233907f9e71bc8eea02a63969f509818f2dafb9254532904319f9dbda79b67bd34a5f3d9060200160405180910390a250565b600154336000818152600360205260409081902054905163a8031a1d60e01b8152600481019290925260248201526001600160a01b039091169063a8031a1d90604401600060405180830381600087803b15801561059057600080fd5b505af11580156105a4573d6000803e3d6000fd5b50505050565b6105b261064c565b6001600160a01b0381166105dc57604051631e4fbdf760e01b8152600060048201526024016102ad565b6105e581610679565b50565b6040516001600160a01b0383811660248301526044820183905261064791859182169063a9059cbb906064015b604051602081830303815290604052915060e01b6020820180516001600160e01b038381831617835250505050610702565b505050565b6000546001600160a01b031633146103f95760405163118cdaa760e01b81523360048201526024016102ad565b600080546001600160a01b038381166001600160a01b0319831681178455604051919092169283917f8be0079c531659141344cd1fd0a4f28419497f9722a3daafe3b4186f6b6457e09190a35050565b6040516001600160a01b0384811660248301528381166044830152606482018390526105a49186918216906323b872dd90608401610615565b600080602060008451602086016000885af180610725576040513d6000823e3d81fd5b50506000513d9150811561073d57806001141561074a565b6001600160a01b0384163b155b156105a457604051635274afe760e01b81526001600160a01b03851660048201526024016102ad565b60006020828403121561078557600080fd5b81356001600160a01b038116811461079c57600080fd5b9392505050565b6000602082840312156107b557600080fd5b5035919050565b634e487b7160e01b600052601160045260246000fd5b808201808211156107e5576107e56107bc565b92915050565b80820281158282048414176107e5576107e56107bc565b60008261081f57634e487b7160e01b600052601260045260246000fd5b500490565b818103818111156107e5576107e56107bc56fea2646970667358221220cba6eaa3974477dcfc859ec97da868ba147c7c826497f857514750ba3031a66264736f6c634300081c0033",
  "linkReferences": {},
  "deployedLinkReferences": {}
}