{
  "_format": "hh-sol-artifact-1",
  "contractName": "YieldPool",
  "sourceName": "contracts/YieldPool.sol",
  "abi": [
    {
      "inputs": [
        {
          "internalType": "address",
          "name": "_rewardToken",
          "type": "address"
        }
      ],
      "stateMutability": "nonpayable",
      "type": "constructor"
    },
    {
      "inputs": [
        {
          "internalType": "address",
          "name": "owner",
          "type": "address"
        }
      ],
      "name": "OwnableInvalidOwner",
      "type": "error"
    },
    {
      "inputs": [
        {
          "internalType": "address",
          "name": "account",
          "type": "address"
        }
      ],
      "name": "OwnableUnauthorizedAccount",
      "type": "error"
    },
    {
      "anonymous": false,
      "inputs": [
        {
          "indexed": true,
          "internalType": "address",
          "name": "previousOwner",
          "type": "address"
        },
        {
          "indexed": true,
          "internalType": "address",
          "name": "newOwner",
          "type": "address"
        }
      ],
      "name": "OwnershipTransferred",
      "type": "event"
    },
    {
      "inputs": [
        {
          "internalType": "uint256",
          "name": "amount",
          "type": "uint256"
        }
      ],
      "name": "addYield",
      "outputs": [],
      "stateMutability": "nonpayable",
      "type": "function"
    },
    {
      "inputs": [
        {
          "internalType": "address",
          "name": "user",
          "type": "address"
        },
        {
          "internalType": "uint256",
          "name": "amount",
          "type": "uint256"
        }
      ],
      "name": "distributeYield",
      "outputs": [],
      "stateMutability": "nonpayable",
      "type": "function"
    },
    {
      "inputs": [],
      "name": "owner",
      "outputs": [
        {
          "internalType": "address",
          "name": "",
          "type": "address"
        }
      ],
      "stateMutability": "view",
      "type": "function"
    },
    {
      "inputs": [],
      "name": "renounceOwnership",
      "outputs": [],
      "stateMutability": "nonpayable",
      "type": "function"
    },
    {
      "inputs": [],
      "name": "rewardToken",
      "outputs": [
        {
          "internalType": "contract IERC20",
          "name": "",
          "type": "address"
        }
      ],
      "stateMutability": "view",
      "type": "function"
    },
    {
      "inputs": [],
      "name": "totalYieldPool",
      "outputs": [
        {
          "internalType": "uint256",
          "name": "",
          "type": "uint256"
        }
      ],
      "stateMutability": "view",
      "type": "function"
    },
    {
      "inputs": [
        {
          "internalType": "address",
          "name": "newOwner",
          "type": "address"
        }
      ],
      "name": "transferOwnership",
      "outputs": [],
      "stateMutability": "nonpayable",
      "type": "function"
    }
  ],
  "bytecode": "0x60a060405234801561001057600080fd5b5060405161068e38038061068e83398101604081905261002f91610117565b338061005657604051631e4fbdf760e01b8152600060048201526024015b60405180910390fd5b61005f816100c7565b506001600160a01b0381166100b65760405162461bcd60e51b815260206004820152601460248201527f496e76616c69642072657761726420746f6b656e000000000000000000000000604482015260640161004d565b6001600160a01b0316608052610147565b600080546001600160a01b038381166001600160a01b0319831681178455604051919092169283917f8be0079c531659141344cd1fd0a4f28419497f9722a3daafe3b4186f6b6457e09190a35050565b60006020828403121561012957600080fd5b81516001600160a01b038116811461014057600080fd5b9392505050565b60805161051e6101706000396000818161010b0152818161020501526102b8015261051e6000f3fe608060405234801561001057600080fd5b506004361061007d5760003560e01c8063bd4ba9c01161005b578063bd4ba9c0146100cd578063c8b2b546146100e0578063f2fde38b146100f3578063f7c618c11461010657600080fd5b8063715018a6146100825780638da5cb5b1461008c578063993c36e1146100b6575b600080fd5b61008a61012d565b005b6000546001600160a01b03165b6040516001600160a01b0390911681526020015b60405180910390f35b6100bf60015481565b6040519081526020016100ad565b61008a6100db36600461041f565b610141565b61008a6100ee366004610449565b61028e565b61008a610101366004610462565b610348565b6100997f000000000000000000000000000000000000000000000000000000000000000081565b610135610386565b61013f60006103b3565b565b6000811161018d5760405162461bcd60e51b8152602060048201526014602482015273125b9d985b1a59081e5a595b1908185b5bdd5b9d60621b60448201526064015b60405180910390fd5b6001548111156101df5760405162461bcd60e51b815260206004820152601960248201527f496e73756666696369656e7420706f6f6c2062616c616e6365000000000000006044820152606401610184565b60405163a9059cbb60e01b81526001600160a01b038381166004830152602482018390527f0000000000000000000000000000000000000000000000000000000000000000169063a9059cbb906044016020604051808303816000875af115801561024e573d6000803e3d6000fd5b505050506040513d601f19601f820116820180604052508101906102729190610484565b50806001600082825461028591906104bc565b90915550505050565b610296610386565b6040516323b872dd60e01b8152336004820152306024820152604481018290527f00000000000000000000000000000000000000000000000000000000000000006001600160a01b0316906323b872dd906064016020604051808303816000875af1158015610309573d6000803e3d6000fd5b505050506040513d601f19601f8201168201806040525081019061032d9190610484565b50806001600082825461034091906104d5565b909155505050565b610350610386565b6001600160a01b03811661037a57604051631e4fbdf760e01b815260006004820152602401610184565b610383816103b3565b50565b6000546001600160a01b0316331461013f5760405163118cdaa760e01b8152336004820152602401610184565b600080546001600160a01b038381166001600160a01b0319831681178455604051919092169283917f8be0079c531659141344cd1fd0a4f28419497f9722a3daafe3b4186f6b6457e09190a35050565b80356001600160a01b038116811461041a57600080fd5b919050565b6000806040838503121561043257600080fd5b61043b83610403565b946020939093013593505050565b60006020828403121561045b57600080fd5b5035919050565b60006020828403121561047457600080fd5b61047d82610403565b9392505050565b60006020828403121561049657600080fd5b8151801515811461047d57600080fd5b634e487b7160e01b600052601160045260246000fd5b818103818111156104cf576104cf6104a6565b92915050565b808201808211156104cf576104cf6104a656fea264697066735822122098da953989de10025f128345173ec50eaf5cc7499d8f080267231958c3872aad64736f6c634300081c0033",
  "linkReferences": {},
  "deployedLinkReferences": {}
}